{
  "contractName": "Voting",
  "abi": [
    {
      "anonymous": false,
      "inputs": [
        {
          "indexed": true,
          "internalType": "address",
          "name": "previousOwner",
          "type": "address"
        },
        {
          "indexed": true,
          "internalType": "address",
          "name": "newOwner",
          "type": "address"
        }
      ],
      "name": "OwnershipTransferred",
      "type": "event"
    },
    {
      "anonymous": false,
      "inputs": [
        {
          "indexed": false,
          "internalType": "uint256",
          "name": "proposalId",
          "type": "uint256"
        }
      ],
      "name": "ProposalRegistered",
      "type": "event"
    },
    {
      "anonymous": false,
      "inputs": [
        {
          "indexed": false,
          "internalType": "address",
          "name": "voter",
          "type": "address"
        },
        {
          "indexed": false,
          "internalType": "uint256",
          "name": "proposalId",
          "type": "uint256"
        }
      ],
      "name": "Voted",
      "type": "event"
    },
    {
      "anonymous": false,
      "inputs": [
        {
          "indexed": false,
          "internalType": "address",
          "name": "voterAddress",
          "type": "address"
        }
      ],
      "name": "VoterRegistered",
      "type": "event"
    },
    {
      "anonymous": false,
      "inputs": [
        {
          "indexed": false,
          "internalType": "enum Voting.WorkflowStatus",
          "name": "previousStatus",
          "type": "uint8"
        },
        {
          "indexed": false,
          "internalType": "enum Voting.WorkflowStatus",
          "name": "newStatus",
          "type": "uint8"
        }
      ],
      "name": "WorkflowStatusChange",
      "type": "event"
    },
    {
      "inputs": [],
      "name": "owner",
      "outputs": [
        {
          "internalType": "address",
          "name": "",
          "type": "address"
        }
      ],
      "stateMutability": "view",
      "type": "function",
      "constant": true
    },
    {
      "inputs": [],
      "name": "renounceOwnership",
      "outputs": [],
      "stateMutability": "nonpayable",
      "type": "function"
    },
    {
      "inputs": [
        {
          "internalType": "address",
          "name": "newOwner",
          "type": "address"
        }
      ],
      "name": "transferOwnership",
      "outputs": [],
      "stateMutability": "nonpayable",
      "type": "function"
    },
    {
      "inputs": [],
      "name": "winningProposalID",
      "outputs": [
        {
          "internalType": "uint256",
          "name": "",
          "type": "uint256"
        }
      ],
      "stateMutability": "view",
      "type": "function",
      "constant": true
    },
    {
      "inputs": [],
      "name": "workflowStatus",
      "outputs": [
        {
          "internalType": "enum Voting.WorkflowStatus",
          "name": "",
          "type": "uint8"
        }
      ],
      "stateMutability": "view",
      "type": "function",
      "constant": true
    },
    {
      "inputs": [
        {
          "internalType": "address",
          "name": "_addr",
          "type": "address"
        }
      ],
      "name": "getVoter",
      "outputs": [
        {
          "components": [
            {
              "internalType": "bool",
              "name": "isRegistered",
              "type": "bool"
            },
            {
              "internalType": "bool",
              "name": "hasVoted",
              "type": "bool"
            },
            {
              "internalType": "uint256",
              "name": "votedProposalId",
              "type": "uint256"
            }
          ],
          "internalType": "struct Voting.Voter",
          "name": "",
          "type": "tuple"
        }
      ],
      "stateMutability": "view",
      "type": "function",
      "constant": true
    },
    {
      "inputs": [
        {
          "internalType": "uint256",
          "name": "_id",
          "type": "uint256"
        }
      ],
      "name": "getOneProposal",
      "outputs": [
        {
          "components": [
            {
              "internalType": "string",
              "name": "description",
              "type": "string"
            },
            {
              "internalType": "uint256",
              "name": "voteCount",
              "type": "uint256"
            }
          ],
          "internalType": "struct Voting.Proposal",
          "name": "",
          "type": "tuple"
        }
      ],
      "stateMutability": "view",
      "type": "function",
      "constant": true
    },
    {
      "inputs": [
        {
          "internalType": "address",
          "name": "_addr",
          "type": "address"
        }
      ],
      "name": "addVoter",
      "outputs": [],
      "stateMutability": "nonpayable",
      "type": "function"
    },
    {
      "inputs": [
        {
          "internalType": "string",
          "name": "_desc",
          "type": "string"
        }
      ],
      "name": "addProposal",
      "outputs": [],
      "stateMutability": "nonpayable",
      "type": "function"
    },
    {
      "inputs": [
        {
          "internalType": "uint256",
          "name": "_id",
          "type": "uint256"
        }
      ],
      "name": "setVote",
      "outputs": [],
      "stateMutability": "nonpayable",
      "type": "function"
    },
    {
      "inputs": [],
      "name": "startProposalsRegistering",
      "outputs": [],
      "stateMutability": "nonpayable",
      "type": "function"
    },
    {
      "inputs": [],
      "name": "endProposalsRegistering",
      "outputs": [],
      "stateMutability": "nonpayable",
      "type": "function"
    },
    {
      "inputs": [],
      "name": "startVotingSession",
      "outputs": [],
      "stateMutability": "nonpayable",
      "type": "function"
    },
    {
      "inputs": [],
      "name": "endVotingSession",
      "outputs": [],
      "stateMutability": "nonpayable",
      "type": "function"
    },
    {
      "inputs": [],
      "name": "tallyVotes",
      "outputs": [],
      "stateMutability": "nonpayable",
      "type": "function"
    }
  ],
  "bytecode": "0x608060405234801561001057600080fd5b5061002d61002261003260201b60201c565b61003a60201b60201c565b6100fe565b600033905090565b60008060009054906101000a900473ffffffffffffffffffffffffffffffffffffffff169050816000806101000a81548173ffffffffffffffffffffffffffffffffffffffff021916908373ffffffffffffffffffffffffffffffffffffffff1602179055508173ffffffffffffffffffffffffffffffffffffffff168173ffffffffffffffffffffffffffffffffffffffff167f8be0079c531659141344cd1fd0a4f28419497f9722a3daafe3b4186f6b6457e060405160405180910390a35050565b6120a2806200010e6000396000f3fe608060405234801561001057600080fd5b50600436106100f55760003560e01c8063a7bfab1611610097578063d4f50f9811610066578063d4f50f98146101ee578063ee74c6781461021e578063f2fde38b14610228578063f4ab9adf14610244576100f5565b8063a7bfab16146101b2578063bdc01431146101bc578063c7038a4e146101da578063c88af42f146101e4576100f5565b8063715018a6116100d3578063715018a61461013c5780638da5cb5b14610146578063a1edffa214610164578063a2788cce14610182576100f5565b8063230796ae146100fa5780632fdae3c514610116578063378a217814610132575b600080fd5b610114600480360381019061010f91906113fc565b610260565b005b610130600480360381019061012b919061148e565b6105b9565b005b61013a61083e565b005b61014461090c565b005b61014e610920565b60405161015b919061151c565b60405180910390f35b61016c610949565b60405161017991906115ae565b60405180910390f35b61019c600480360381019061019791906113fc565b61095c565b6040516101a991906116a5565b60405180910390f35b6101ba610ac3565b005b6101c4610b88565b6040516101d191906116d6565b60405180910390f35b6101e2610b8e565b005b6101ec610ce8565b005b6102086004803603810190610203919061171d565b610dad565b60405161021591906117a7565b60405180910390f35b610226610ed5565b005b610242600480360381019061023d919061171d565b610f9a565b005b61025e6004803603810190610259919061171d565b61101d565b005b600560003373ffffffffffffffffffffffffffffffffffffffff1673ffffffffffffffffffffffffffffffffffffffff16815260200190815260200160002060000160009054906101000a900460ff166102ef576040517f08c379a00000000000000000000000000000000000000000000000000000000081526004016102e69061181f565b60405180910390fd5b600380600581111561030457610303611537565b5b600360009054906101000a900460ff16600581111561032657610325611537565b5b14610366576040517f08c379a000000000000000000000000000000000000000000000000000000000815260040161035d9061188b565b60405180910390fd5b60011515600560003373ffffffffffffffffffffffffffffffffffffffff1673ffffffffffffffffffffffffffffffffffffffff16815260200190815260200160002060000160019054906101000a900460ff161515036103fc576040517f08c379a00000000000000000000000000000000000000000000000000000000081526004016103f3906118f7565b60405180910390fd5b6004805490508210610443576040517f08c379a000000000000000000000000000000000000000000000000000000000815260040161043a90611963565b60405180910390fd5b81600560003373ffffffffffffffffffffffffffffffffffffffff1673ffffffffffffffffffffffffffffffffffffffff168152602001908152602001600020600101819055506001600560003373ffffffffffffffffffffffffffffffffffffffff1673ffffffffffffffffffffffffffffffffffffffff16815260200190815260200160002060000160016101000a81548160ff021916908315150217905550600482815481106104f9576104f8611983565b5b9060005260206000209060020201600101600081548092919061051b906119e1565b919050555060046002548154811061053657610535611983565b5b9060005260206000209060020201600101546004838154811061055c5761055b611983565b5b906000526020600020906002020160010154111561057c57816002819055505b7f4d99b957a2bc29a30ebd96a7be8e68fe50a3c701db28a91436490b7d53870ca433836040516105ad929190611a29565b60405180910390a15050565b600560003373ffffffffffffffffffffffffffffffffffffffff1673ffffffffffffffffffffffffffffffffffffffff16815260200190815260200160002060000160009054906101000a900460ff16610648576040517f08c379a000000000000000000000000000000000000000000000000000000000815260040161063f9061181f565b60405180910390fd5b600180600581111561065d5761065c611537565b5b600360009054906101000a900460ff16600581111561067f5761067e611537565b5b146106bf576040517f08c379a00000000000000000000000000000000000000000000000000000000081526004016106b69061188b565b60405180910390fd5b6040516020016106ce90611a78565b6040516020818303038152906040528051906020012083836040516020016106f7929190611ad4565b604051602081830303815290604052805190602001200361074d576040517f08c379a000000000000000000000000000000000000000000000000000000000815260040161074490611b44565b60405180910390fd5b61075561137d565b83838080601f016020809104026020016040519081016040528093929190818152602001838380828437600081840152601f19601f820116905080830192505050505050508160000181905250600481908060018154018082558091505060019003906000526020600020906002020160009091909190915060008201518160000190816107e39190611d9f565b506020820151816001015550507f92e393e9b54e2f801d3ea4beb0c5e71a21cc34a5d34b77d0fb8a3aa1650dc18f60016004805490506108239190611e71565b60405161083091906116d6565b60405180910390a150505050565b6108466111c8565b600480600581111561085b5761085a611537565b5b600360009054906101000a900460ff16600581111561087d5761087c611537565b5b146108bd576040517f08c379a00000000000000000000000000000000000000000000000000000000081526004016108b49061188b565b60405180910390fd5b6002546001819055507f0a97a4ee45751e2abf3e4fc8946939630b11b371ea8ae39ccdc3056e98f5cc3f600460056040516108f9929190611ea5565b60405180910390a1610909611246565b50565b6109146111c8565b61091e60006112b1565b565b60008060009054906101000a900473ffffffffffffffffffffffffffffffffffffffff16905090565b600360009054906101000a900460ff1681565b61096461137d565b600560003373ffffffffffffffffffffffffffffffffffffffff1673ffffffffffffffffffffffffffffffffffffffff16815260200190815260200160002060000160009054906101000a900460ff166109f3576040517f08c379a00000000000000000000000000000000000000000000000000000000081526004016109ea9061181f565b60405180910390fd5b60048281548110610a0757610a06611983565b5b9060005260206000209060020201604051806040016040529081600082018054610a3090611bc2565b80601f0160208091040260200160405190810160405280929190818152602001828054610a5c90611bc2565b8015610aa95780601f10610a7e57610100808354040283529160200191610aa9565b820191906000526020600020905b815481529060010190602001808311610a8c57829003601f168201915b505050505081526020016001820154815250509050919050565b610acb6111c8565b6003806005811115610ae057610adf611537565b5b600360009054906101000a900460ff166005811115610b0257610b01611537565b5b14610b42576040517f08c379a0000000000000000000000000000000000000000000000000000000008152600401610b399061188b565b60405180910390fd5b7f0a97a4ee45751e2abf3e4fc8946939630b11b371ea8ae39ccdc3056e98f5cc3f60036004604051610b75929190611ea5565b60405180910390a1610b85611246565b50565b60015481565b610b966111c8565b6000806005811115610bab57610baa611537565b5b600360009054906101000a900460ff166005811115610bcd57610bcc611537565b5b14610c0d576040517f08c379a0000000000000000000000000000000000000000000000000000000008152600401610c049061188b565b60405180910390fd5b610c1561137d565b6040518060400160405280600781526020017f47454e4553495300000000000000000000000000000000000000000000000000815250816000018190525060048190806001815401808255809150506001900390600052602060002090600202016000909190919091506000820151816000019081610c949190611d9f565b506020820151816001015550507f0a97a4ee45751e2abf3e4fc8946939630b11b371ea8ae39ccdc3056e98f5cc3f60006001604051610cd4929190611ea5565b60405180910390a150610ce5611246565b50565b610cf06111c8565b6001806005811115610d0557610d04611537565b5b600360009054906101000a900460ff166005811115610d2757610d26611537565b5b14610d67576040517f08c379a0000000000000000000000000000000000000000000000000000000008152600401610d5e9061188b565b60405180910390fd5b7f0a97a4ee45751e2abf3e4fc8946939630b11b371ea8ae39ccdc3056e98f5cc3f60016002604051610d9a929190611ea5565b60405180910390a1610daa611246565b50565b610db5611397565b600560003373ffffffffffffffffffffffffffffffffffffffff1673ffffffffffffffffffffffffffffffffffffffff16815260200190815260200160002060000160009054906101000a900460ff16610e44576040517f08c379a0000000000000000000000000000000000000000000000000000000008152600401610e3b9061181f565b60405180910390fd5b600560008373ffffffffffffffffffffffffffffffffffffffff1673ffffffffffffffffffffffffffffffffffffffff1681526020019081526020016000206040518060600160405290816000820160009054906101000a900460ff161515151581526020016000820160019054906101000a900460ff161515151581526020016001820154815250509050919050565b610edd6111c8565b6002806005811115610ef257610ef1611537565b5b600360009054906101000a900460ff166005811115610f1457610f13611537565b5b14610f54576040517f08c379a0000000000000000000000000000000000000000000000000000000008152600401610f4b9061188b565b60405180910390fd5b7f0a97a4ee45751e2abf3e4fc8946939630b11b371ea8ae39ccdc3056e98f5cc3f60026003604051610f87929190611ea5565b60405180910390a1610f97611246565b50565b610fa26111c8565b600073ffffffffffffffffffffffffffffffffffffffff168173ffffffffffffffffffffffffffffffffffffffff1603611011576040517f08c379a000000000000000000000000000000000000000000000000000000000815260040161100890611f40565b60405180910390fd5b61101a816112b1565b50565b6110256111c8565b600080600581111561103a57611039611537565b5b600360009054906101000a900460ff16600581111561105c5761105b611537565b5b1461109c576040517f08c379a00000000000000000000000000000000000000000000000000000000081526004016110939061188b565b60405180910390fd5b60011515600560008473ffffffffffffffffffffffffffffffffffffffff1673ffffffffffffffffffffffffffffffffffffffff16815260200190815260200160002060000160009054906101000a900460ff16151503611132576040517f08c379a000000000000000000000000000000000000000000000000000000000815260040161112990611fac565b60405180910390fd5b6001600560008473ffffffffffffffffffffffffffffffffffffffff1673ffffffffffffffffffffffffffffffffffffffff16815260200190815260200160002060000160006101000a81548160ff0219169083151502179055507fb6be2187d059cc2a55fe29e0e503b566e1e0f8c8780096e185429350acffd3dd826040516111bc919061151c565b60405180910390a15050565b6111d0611375565b73ffffffffffffffffffffffffffffffffffffffff166111ee610920565b73ffffffffffffffffffffffffffffffffffffffff1614611244576040517f08c379a000000000000000000000000000000000000000000000000000000000815260040161123b90612018565b60405180910390fd5b565b6001600360009054906101000a900460ff16600581111561126a57611269611537565b5b6112749190612038565b600581111561128657611285611537565b5b600360006101000a81548160ff021916908360058111156112aa576112a9611537565b5b0217905550565b60008060009054906101000a900473ffffffffffffffffffffffffffffffffffffffff169050816000806101000a81548173ffffffffffffffffffffffffffffffffffffffff021916908373ffffffffffffffffffffffffffffffffffffffff1602179055508173ffffffffffffffffffffffffffffffffffffffff168173ffffffffffffffffffffffffffffffffffffffff167f8be0079c531659141344cd1fd0a4f28419497f9722a3daafe3b4186f6b6457e060405160405180910390a35050565b600033905090565b604051806040016040528060608152602001600081525090565b6040518060600160405280600015158152602001600015158152602001600081525090565b600080fd5b600080fd5b6000819050919050565b6113d9816113c6565b81146113e457600080fd5b50565b6000813590506113f6816113d0565b92915050565b600060208284031215611412576114116113bc565b5b6000611420848285016113e7565b91505092915050565b600080fd5b600080fd5b600080fd5b60008083601f84011261144e5761144d611429565b5b8235905067ffffffffffffffff81111561146b5761146a61142e565b5b60208301915083600182028301111561148757611486611433565b5b9250929050565b600080602083850312156114a5576114a46113bc565b5b600083013567ffffffffffffffff8111156114c3576114c26113c1565b5b6114cf85828601611438565b92509250509250929050565b600073ffffffffffffffffffffffffffffffffffffffff82169050919050565b6000611506826114db565b9050919050565b611516816114fb565b82525050565b6000602082019050611531600083018461150d565b92915050565b7f4e487b7100000000000000000000000000000000000000000000000000000000600052602160045260246000fd5b6006811061157757611576611537565b5b50565b600081905061158882611566565b919050565b60006115988261157a565b9050919050565b6115a88161158d565b82525050565b60006020820190506115c3600083018461159f565b92915050565b600081519050919050565b600082825260208201905092915050565b60005b838110156116035780820151818401526020810190506115e8565b60008484015250505050565b6000601f19601f8301169050919050565b600061162b826115c9565b61163581856115d4565b93506116458185602086016115e5565b61164e8161160f565b840191505092915050565b611662816113c6565b82525050565b600060408301600083015184820360008601526116858282611620565b915050602083015161169a6020860182611659565b508091505092915050565b600060208201905081810360008301526116bf8184611668565b905092915050565b6116d0816113c6565b82525050565b60006020820190506116eb60008301846116c7565b92915050565b6116fa816114fb565b811461170557600080fd5b50565b600081359050611717816116f1565b92915050565b600060208284031215611733576117326113bc565b5b600061174184828501611708565b91505092915050565b60008115159050919050565b61175f8161174a565b82525050565b60608201600082015161177b6000850182611756565b50602082015161178e6020850182611756565b5060408201516117a16040850182611659565b50505050565b60006060820190506117bc6000830184611765565b92915050565b600082825260208201905092915050565b7f41646472657373206e6f74207265676973746572656400000000000000000000600082015250565b60006118096016836117c2565b9150611814826117d3565b602082019050919050565b60006020820190508181036000830152611838816117fc565b9050919050565b7f416374696f6e206f757473696465206576656e742073636f7065000000000000600082015250565b6000611875601a836117c2565b91506118808261183f565b602082019050919050565b600060208201905081810360008301526118a481611868565b9050919050565b7f596f75206861766520616c726561647920766f74656400000000000000000000600082015250565b60006118e16016836117c2565b91506118ec826118ab565b602082019050919050565b60006020820190508181036000830152611910816118d4565b9050919050565b7f50726f706f73616c206e6f7420666f756e640000000000000000000000000000600082015250565b600061194d6012836117c2565b915061195882611917565b602082019050919050565b6000602082019050818103600083015261197c81611940565b9050919050565b7f4e487b7100000000000000000000000000000000000000000000000000000000600052603260045260246000fd5b7f4e487b7100000000000000000000000000000000000000000000000000000000600052601160045260246000fd5b60006119ec826113c6565b91507fffffffffffffffffffffffffffffffffffffffffffffffffffffffffffffffff8203611a1e57611a1d6119b2565b5b600182019050919050565b6000604082019050611a3e600083018561150d565b611a4b60208301846116c7565b9392505050565b50565b6000611a626000836117c2565b9150611a6d82611a52565b600082019050919050565b60006020820190508181036000830152611a9181611a55565b9050919050565b82818337600083830152505050565b6000611ab383856117c2565b9350611ac0838584611a98565b611ac98361160f565b840190509392505050565b60006020820190508181036000830152611aef818486611aa7565b90509392505050565b7f596f75206d75737420656e7465722061206465736372697074696f6e00000000600082015250565b6000611b2e601c836117c2565b9150611b3982611af8565b602082019050919050565b60006020820190508181036000830152611b5d81611b21565b9050919050565b7f4e487b7100000000000000000000000000000000000000000000000000000000600052604160045260246000fd5b7f4e487b7100000000000000000000000000000000000000000000000000000000600052602260045260246000fd5b60006002820490506001821680611bda57607f821691505b602082108103611bed57611bec611b93565b5b50919050565b60008190508160005260206000209050919050565b60006020601f8301049050919050565b600082821b905092915050565b600060088302611c557fffffffffffffffffffffffffffffffffffffffffffffffffffffffffffffffff82611c18565b611c5f8683611c18565b95508019841693508086168417925050509392505050565b6000819050919050565b6000611c9c611c97611c92846113c6565b611c77565b6113c6565b9050919050565b6000819050919050565b611cb683611c81565b611cca611cc282611ca3565b848454611c25565b825550505050565b600090565b611cdf611cd2565b611cea818484611cad565b505050565b5b81811015611d0e57611d03600082611cd7565b600181019050611cf0565b5050565b601f821115611d5357611d2481611bf3565b611d2d84611c08565b81016020851015611d3c578190505b611d50611d4885611c08565b830182611cef565b50505b505050565b600082821c905092915050565b6000611d7660001984600802611d58565b1980831691505092915050565b6000611d8f8383611d65565b9150826002028217905092915050565b611da8826115c9565b67ffffffffffffffff811115611dc157611dc0611b64565b5b611dcb8254611bc2565b611dd6828285611d12565b600060209050601f831160018114611e095760008415611df7578287015190505b611e018582611d83565b865550611e69565b601f198416611e1786611bf3565b60005b82811015611e3f57848901518255600182019150602085019450602081019050611e1a565b86831015611e5c5784890151611e58601f891682611d65565b8355505b6001600288020188555050505b505050505050565b6000611e7c826113c6565b9150611e87836113c6565b9250828203905081811115611e9f57611e9e6119b2565b5b92915050565b6000604082019050611eba600083018561159f565b611ec7602083018461159f565b9392505050565b7f4f776e61626c653a206e6577206f776e657220697320746865207a65726f206160008201527f6464726573730000000000000000000000000000000000000000000000000000602082015250565b6000611f2a6026836117c2565b9150611f3582611ece565b604082019050919050565b60006020820190508181036000830152611f5981611f1d565b9050919050565b7f416c726561647920726567697374657265640000000000000000000000000000600082015250565b6000611f966012836117c2565b9150611fa182611f60565b602082019050919050565b60006020820190508181036000830152611fc581611f89565b9050919050565b7f4f776e61626c653a2063616c6c6572206973206e6f7420746865206f776e6572600082015250565b60006120026020836117c2565b915061200d82611fcc565b602082019050919050565b6000602082019050818103600083015261203181611ff5565b9050919050565b6000612043826113c6565b915061204e836113c6565b9250828201905080821115612066576120656119b2565b5b9291505056fea26469706673582212209ec460847f1b1a8ef25d30008fb441a18b5399c63d6e0ef112ff7a56ff6ba5e664736f6c63430008120033",
  "immutableReferences": {},
  "source": "// SPDX-License-Identifier: MIT\n\npragma solidity 0.8.18;\nimport \"../node_modules/@openzeppelin/contracts/access/Ownable.sol\";\n\n\n/**\n * @author Cyril Castagnet\n * @title Voting\n * @dev Satoshi dev project 3 smart contract\n */\n\ncontract Voting is Ownable {\n    /**\n    * @dev _wid Secret winning proposal identification number\n    * @dev winningProposalID Final winning proposal identification number\n     */\n    uint public winningProposalID;\n    uint private _wid;\n\n    /**\n    * @dev Structure to define Voter users\n    */\n    struct Voter {\n        bool isRegistered;\n        bool hasVoted;\n        uint votedProposalId;\n    }\n\n    /**\n    * @dev Structure to define Proposal candidates\n    */\n    struct Proposal {\n        string description;\n        uint voteCount;\n    }\n\n    /**\n    * @dev Structure to define Voter users\n    */\n    enum  WorkflowStatus {\n        RegisteringVoters,\n        ProposalsRegistrationStarted,\n        ProposalsRegistrationEnded,\n        VotingSessionStarted,\n        VotingSessionEnded,\n        VotesTallied\n    }\n\n    /**\n    * @dev State variable to store Worfkflow state\n    */\n    WorkflowStatus public workflowStatus;\n    /**\n    * @dev List of propoposals candidates stored on-chain\n    */\n    Proposal[] proposalsArray;\n    /**\n    * @dev Voters on-chain registry\n    */\n    mapping (address => Voter) voters;\n\n    /**\n    * @dev Event for client comunications\n    */\n    event VoterRegistered(address voterAddress); \n    event WorkflowStatusChange(WorkflowStatus previousStatus, WorkflowStatus newStatus);\n    event ProposalRegistered(uint proposalId);\n    event Voted (address voter, uint proposalId);\n    \n    /**\n     * @dev Only allow registered addresses\n     */\n    modifier onlyVoters() {\n        require(voters[msg.sender].isRegistered, \"Address not registered\");\n        _;\n    }\n\n    /**\n     * @dev Only at given workflow \n     * @param   _status Required workflowStatus state\n     */\n    modifier atWorkflowStatus(WorkflowStatus _status) {\n        require(workflowStatus == _status, \"Action outside event scope\");\n        _;\n    }\n\n    /**\n     * @dev Moves to next WorkFlowStatus state\n     */\n    modifier workflowStatusTransit() {\n        _;\n        nextWorkflowStatus();\n    }\n\n    /**\n     * @dev Increment workflowStatus state variable\n     */\n    function nextWorkflowStatus() internal {\n        workflowStatus = WorkflowStatus(uint(workflowStatus)+1);\n    }\n    \n    // ::::::::::::: GETTERS ::::::::::::: //\n\n    /**\n     * @dev Returns a voter given an address\n     * @param   _addr Registered address\n     * @return  Voter Voter associated with the address\n     */\n    function getVoter(address _addr) external onlyVoters view returns (Voter memory) {\n        return voters[_addr];\n    }\n    \n    /**\n     * @dev Returns a proposal\n     * @param   _id Proposal identification number\n     * @return  Proposal Proposal associated with the id\n     */\n    function getOneProposal(uint _id) external onlyVoters view returns (Proposal memory) {\n        return proposalsArray[_id];\n    }\n \n    // ::::::::::::: REGISTRATION ::::::::::::: // \n\n    /**\n     * @dev Adds a voter's address to the whitelist\n     * @param   _addr The address to be registered\n     */\n    function addVoter(address _addr) external onlyOwner atWorkflowStatus(WorkflowStatus.RegisteringVoters) {\n        require(voters[_addr].isRegistered != true, \"Already registered\");\n    \n        voters[_addr].isRegistered = true;\n        \n        emit VoterRegistered(_addr);\n    }\n\n    // ::::::::::::: PROPOSAL ::::::::::::: // \n\n    /**\n     * @dev Registers a proposal\n     * @param   _desc Text description of the proposal\n     */\n    function addProposal(string calldata _desc) external onlyVoters atWorkflowStatus(WorkflowStatus.ProposalsRegistrationStarted) {\n        require(keccak256(abi.encode(_desc)) != keccak256(abi.encode(\"\")), \"You must enter a description\");\n\n        Proposal memory proposal;\n        proposal.description = _desc;\n        proposalsArray.push(proposal);\n\n        emit ProposalRegistered(proposalsArray.length-1);\n    }\n\n    // ::::::::::::: VOTE ::::::::::::: //\n\n    /**\n     * @dev Allows registered voters to vote for a registered proposal\n     * @param   _id Voted proposal identification number\n     */\n    function setVote(uint _id) external onlyVoters atWorkflowStatus(WorkflowStatus.VotingSessionStarted) {\n        require(voters[msg.sender].hasVoted != true, \"You have already voted\");\n        require(_id < proposalsArray.length, \"Proposal not found\"); \n\n        voters[msg.sender].votedProposalId = _id;\n        voters[msg.sender].hasVoted = true;\n        proposalsArray[_id].voteCount++;\n\n        if (proposalsArray[_id].voteCount > proposalsArray[_wid].voteCount) _wid = _id;\n\n        emit Voted(msg.sender, _id);\n    }\n\n    // ::::::::::::: STATE ::::::::::::: //\n\n    /**\n     * @dev Allows admin user to start proposal registration period\n     */\n    function startProposalsRegistering() external onlyOwner atWorkflowStatus(WorkflowStatus.RegisteringVoters) workflowStatusTransit {\n        Proposal memory proposal;\n        proposal.description = \"GENESIS\";\n        proposalsArray.push(proposal);\n        \n        emit WorkflowStatusChange(\n            WorkflowStatus.RegisteringVoters, \n            WorkflowStatus.ProposalsRegistrationStarted\n        );\n    }\n\n    /**\n     * @dev Allows admin user to end proposal registration period\n     */\n    function endProposalsRegistering() external onlyOwner atWorkflowStatus(WorkflowStatus.ProposalsRegistrationStarted) workflowStatusTransit {\n        emit WorkflowStatusChange(\n            WorkflowStatus.ProposalsRegistrationStarted, \n            WorkflowStatus.ProposalsRegistrationEnded\n        );\n    }\n\n    /**\n     * @dev Allows admin user to start voting session\n     */\n    function startVotingSession() external onlyOwner atWorkflowStatus(WorkflowStatus.ProposalsRegistrationEnded) workflowStatusTransit {\n        emit WorkflowStatusChange(\n            WorkflowStatus.ProposalsRegistrationEnded, \n            WorkflowStatus.VotingSessionStarted\n        );\n    }\n\n    /**\n     * @dev Allows admin user to end voting session\n     */\n    function endVotingSession() external onlyOwner atWorkflowStatus(WorkflowStatus.VotingSessionStarted) workflowStatusTransit {\n        emit WorkflowStatusChange(\n            WorkflowStatus.VotingSessionStarted, \n            WorkflowStatus.VotingSessionEnded\n        );\n    }\n\n    /**\n     * @dev Allows admin user to tally votes and set winning proposal\n     */\n    function tallyVotes() external onlyOwner atWorkflowStatus(WorkflowStatus.VotingSessionEnded) workflowStatusTransit {\n        winningProposalID = _wid;\n\n        emit WorkflowStatusChange(\n            WorkflowStatus.VotingSessionEnded, \n            WorkflowStatus.VotesTallied\n        );\n    }\n}\n",
  "sourcePath": "/home/yann/formation-alyra/voting-dapp/truffle/contracts/Voting.sol",
  "compiler": {
    "name": "solc",
    "version": "0.8.18+commit.87f61d96.Emscripten.clang"
  },
  "schemaVersion": "3.4.11",
  "updatedAt": "2023-03-20T21:35:46.153Z",
  "networkType": "ethereum",
  "devdoc": {
    "author": "Cyril Castagnet",
    "details": "Satoshi dev project 3 smart contract",
    "events": {
      "VoterRegistered(address)": {
        "details": "Event for client comunications"
      }
    },
    "kind": "dev",
    "methods": {
      "addProposal(string)": {
        "details": "Registers a proposal",
        "params": {
          "_desc": "Text description of the proposal"
        }
      },
      "addVoter(address)": {
        "details": "Adds a voter's address to the whitelist",
        "params": {
          "_addr": "The address to be registered"
        }
      },
      "endProposalsRegistering()": {
        "details": "Allows admin user to end proposal registration period"
      },
      "endVotingSession()": {
        "details": "Allows admin user to end voting session"
      },
      "getOneProposal(uint256)": {
        "details": "Returns a proposal",
        "params": {
          "_id": "Proposal identification number"
        },
        "returns": {
          "_0": "Proposal Proposal associated with the id"
        }
      },
      "getVoter(address)": {
        "details": "Returns a voter given an address",
        "params": {
          "_addr": "Registered address"
        },
        "returns": {
          "_0": "Voter Voter associated with the address"
        }
      },
      "owner()": {
        "details": "Returns the address of the current owner."
      },
      "renounceOwnership()": {
        "details": "Leaves the contract without owner. It will not be possible to call `onlyOwner` functions anymore. Can only be called by the current owner. NOTE: Renouncing ownership will leave the contract without an owner, thereby removing any functionality that is only available to the owner."
      },
      "setVote(uint256)": {
        "details": "Allows registered voters to vote for a registered proposal",
        "params": {
          "_id": "Voted proposal identification number"
        }
      },
      "startProposalsRegistering()": {
        "details": "Allows admin user to start proposal registration period"
      },
      "startVotingSession()": {
        "details": "Allows admin user to start voting session"
      },
      "tallyVotes()": {
        "details": "Allows admin user to tally votes and set winning proposal"
      },
      "transferOwnership(address)": {
        "details": "Transfers ownership of the contract to a new account (`newOwner`). Can only be called by the current owner."
      }
    },
    "stateVariables": {
      "proposalsArray": {
        "details": "List of propoposals candidates stored on-chain"
      },
      "voters": {
        "details": "Voters on-chain registry"
      },
      "winningProposalID": {
        "details": "_wid Secret winning proposal identification numberwinningProposalID Final winning proposal identification number"
      },
      "workflowStatus": {
        "details": "State variable to store Worfkflow state"
      }
    },
    "title": "Voting",
    "version": 1
  },
  "userdoc": {
    "kind": "user",
    "methods": {},
    "version": 1
  }
}